{
  "_format": "hh-sol-artifact-1",
  "contractName": "NFTMarketplace",
  "sourceName": "contracts/NFTMarketplace.sol",
  "abi": [
    {
      "inputs": [],
      "stateMutability": "nonpayable",
      "type": "constructor"
    },
    {
      "anonymous": false,
      "inputs": [
        {
          "indexed": true,
          "internalType": "address",
          "name": "owner",
          "type": "address"
        },
        {
          "indexed": true,
          "internalType": "address",
          "name": "approved",
          "type": "address"
        },
        {
          "indexed": true,
          "internalType": "uint256",
          "name": "tokenId",
          "type": "uint256"
        }
      ],
      "name": "Approval",
      "type": "event"
    },
    {
      "anonymous": false,
      "inputs": [
        {
          "indexed": true,
          "internalType": "address",
          "name": "owner",
          "type": "address"
        },
        {
          "indexed": true,
          "internalType": "address",
          "name": "operator",
          "type": "address"
        },
        {
          "indexed": false,
          "internalType": "bool",
          "name": "approved",
          "type": "bool"
        }
      ],
      "name": "ApprovalForAll",
      "type": "event"
    },
    {
      "anonymous": false,
      "inputs": [
        {
          "indexed": false,
          "internalType": "uint256",
          "name": "_fromTokenId",
          "type": "uint256"
        },
        {
          "indexed": false,
          "internalType": "uint256",
          "name": "_toTokenId",
          "type": "uint256"
        }
      ],
      "name": "BatchMetadataUpdate",
      "type": "event"
    },
    {
      "anonymous": false,
      "inputs": [
        {
          "indexed": true,
          "internalType": "uint256",
          "name": "bidId",
          "type": "uint256"
        },
        {
          "indexed": true,
          "internalType": "uint256",
          "name": "tokenId",
          "type": "uint256"
        },
        {
          "indexed": true,
          "internalType": "address",
          "name": "seller",
          "type": "address"
        },
        {
          "indexed": false,
          "internalType": "address",
          "name": "bidder",
          "type": "address"
        },
        {
          "indexed": false,
          "internalType": "uint256",
          "name": "amount",
          "type": "uint256"
        }
      ],
      "name": "BidAccepted",
      "type": "event"
    },
    {
      "anonymous": false,
      "inputs": [
        {
          "indexed": true,
          "internalType": "uint256",
          "name": "bidId",
          "type": "uint256"
        },
        {
          "indexed": true,
          "internalType": "uint256",
          "name": "tokenId",
          "type": "uint256"
        },
        {
          "indexed": false,
          "internalType": "address",
          "name": "bidder",
          "type": "address"
        },
        {
          "indexed": false,
          "internalType": "uint256",
          "name": "amount",
          "type": "uint256"
        }
      ],
      "name": "BidPlaced",
      "type": "event"
    },
    {
      "anonymous": false,
      "inputs": [
        {
          "indexed": true,
          "internalType": "uint256",
          "name": "tokenId",
          "type": "uint256"
        },
        {
          "indexed": false,
          "internalType": "address",
          "name": "seller",
          "type": "address"
        },
        {
          "indexed": false,
          "internalType": "address",
          "name": "owner",
          "type": "address"
        },
        {
          "indexed": false,
          "internalType": "uint256",
          "name": "price",
          "type": "uint256"
        },
        {
          "indexed": false,
          "internalType": "bool",
          "name": "sold",
          "type": "bool"
        },
        {
          "indexed": false,
          "internalType": "uint256",
          "name": "timestamp",
          "type": "uint256"
        }
      ],
      "name": "MarketItemCreated",
      "type": "event"
    },
    {
      "anonymous": false,
      "inputs": [
        {
          "indexed": false,
          "internalType": "uint256",
          "name": "_tokenId",
          "type": "uint256"
        }
      ],
      "name": "MetadataUpdate",
      "type": "event"
    },
    {
      "anonymous": false,
      "inputs": [
        {
          "indexed": true,
          "internalType": "address",
          "name": "seller",
          "type": "address"
        },
        {
          "indexed": false,
          "internalType": "string",
          "name": "review",
          "type": "string"
        }
      ],
      "name": "ReviewAdded",
      "type": "event"
    },
    {
      "anonymous": false,
      "inputs": [
        {
          "indexed": true,
          "internalType": "address",
          "name": "from",
          "type": "address"
        },
        {
          "indexed": true,
          "internalType": "address",
          "name": "to",
          "type": "address"
        },
        {
          "indexed": true,
          "internalType": "uint256",
          "name": "tokenId",
          "type": "uint256"
        }
      ],
      "name": "Transfer",
      "type": "event"
    },
    {
      "inputs": [
        {
          "internalType": "uint256",
          "name": "bidId",
          "type": "uint256"
        }
      ],
      "name": "acceptBid",
      "outputs": [],
      "stateMutability": "nonpayable",
      "type": "function"
    },
    {
      "inputs": [
        {
          "internalType": "address",
          "name": "seller",
          "type": "address"
        },
        {
          "internalType": "string",
          "name": "review",
          "type": "string"
        }
      ],
      "name": "addSellerReview",
      "outputs": [],
      "stateMutability": "nonpayable",
      "type": "function"
    },
    {
      "inputs": [
        {
          "internalType": "address",
          "name": "to",
          "type": "address"
        },
        {
          "internalType": "uint256",
          "name": "tokenId",
          "type": "uint256"
        }
      ],
      "name": "approve",
      "outputs": [],
      "stateMutability": "nonpayable",
      "type": "function"
    },
    {
      "inputs": [
        {
          "internalType": "address",
          "name": "owner",
          "type": "address"
        }
      ],
      "name": "balanceOf",
      "outputs": [
        {
          "internalType": "uint256",
          "name": "",
          "type": "uint256"
        }
      ],
      "stateMutability": "view",
      "type": "function"
    },
    {
      "inputs": [
        {
          "internalType": "uint256",
          "name": "tokenId",
          "type": "uint256"
        }
      ],
      "name": "createMarketSale",
      "outputs": [],
      "stateMutability": "payable",
      "type": "function"
    },
    {
      "inputs": [
        {
          "internalType": "string",
          "name": "tokenURI",
          "type": "string"
        },
        {
          "internalType": "uint256",
          "name": "price",
          "type": "uint256"
        }
      ],
      "name": "createToken",
      "outputs": [
        {
          "internalType": "uint256",
          "name": "",
          "type": "uint256"
        }
      ],
      "stateMutability": "payable",
      "type": "function"
    },
    {
      "inputs": [],
      "name": "fetchItemsListed",
      "outputs": [
        {
          "components": [
            {
              "internalType": "uint256",
              "name": "tokenId",
              "type": "uint256"
            },
            {
              "internalType": "address payable",
              "name": "seller",
              "type": "address"
            },
            {
              "internalType": "address payable",
              "name": "owner",
              "type": "address"
            },
            {
              "internalType": "address",
              "name": "bidder",
              "type": "address"
            },
            {
              "internalType": "uint256",
              "name": "price",
              "type": "uint256"
            },
            {
              "internalType": "bool",
              "name": "sold",
              "type": "bool"
            },
            {
              "internalType": "uint256",
              "name": "timestamp",
              "type": "uint256"
            }
          ],
          "internalType": "struct NFTMarketplace.MarketItem[]",
          "name": "",
          "type": "tuple[]"
        }
      ],
      "stateMutability": "view",
      "type": "function"
    },
    {
      "inputs": [],
      "name": "fetchMarketItems",
      "outputs": [
        {
          "components": [
            {
              "internalType": "uint256",
              "name": "tokenId",
              "type": "uint256"
            },
            {
              "internalType": "address payable",
              "name": "seller",
              "type": "address"
            },
            {
              "internalType": "address payable",
              "name": "owner",
              "type": "address"
            },
            {
              "internalType": "address",
              "name": "bidder",
              "type": "address"
            },
            {
              "internalType": "uint256",
              "name": "price",
              "type": "uint256"
            },
            {
              "internalType": "bool",
              "name": "sold",
              "type": "bool"
            },
            {
              "internalType": "uint256",
              "name": "timestamp",
              "type": "uint256"
            }
          ],
          "internalType": "struct NFTMarketplace.MarketItem[]",
          "name": "",
          "type": "tuple[]"
        }
      ],
      "stateMutability": "view",
      "type": "function"
    },
    {
      "inputs": [],
      "name": "fetchMyNFTs",
      "outputs": [
        {
          "components": [
            {
              "internalType": "uint256",
              "name": "tokenId",
              "type": "uint256"
            },
            {
              "internalType": "address payable",
              "name": "seller",
              "type": "address"
            },
            {
              "internalType": "address payable",
              "name": "owner",
              "type": "address"
            },
            {
              "internalType": "address",
              "name": "bidder",
              "type": "address"
            },
            {
              "internalType": "uint256",
              "name": "price",
              "type": "uint256"
            },
            {
              "internalType": "bool",
              "name": "sold",
              "type": "bool"
            },
            {
              "internalType": "uint256",
              "name": "timestamp",
              "type": "uint256"
            }
          ],
          "internalType": "struct NFTMarketplace.MarketItem[]",
          "name": "",
          "type": "tuple[]"
        }
      ],
      "stateMutability": "view",
      "type": "function"
    },
    {
      "inputs": [
        {
          "internalType": "address",
          "name": "_address",
          "type": "address"
        }
      ],
      "name": "fetchReviewsForAddress",
      "outputs": [
        {
          "internalType": "string[]",
          "name": "",
          "type": "string[]"
        }
      ],
      "stateMutability": "view",
      "type": "function"
    },
    {
      "inputs": [
        {
          "internalType": "uint256",
          "name": "tokenId",
          "type": "uint256"
        }
      ],
      "name": "getApproved",
      "outputs": [
        {
          "internalType": "address",
          "name": "",
          "type": "address"
        }
      ],
      "stateMutability": "view",
      "type": "function"
    },
    {
      "inputs": [],
      "name": "getListingPrice",
      "outputs": [
        {
          "internalType": "uint256",
          "name": "",
          "type": "uint256"
        }
      ],
      "stateMutability": "view",
      "type": "function"
    },
    {
      "inputs": [
        {
          "internalType": "address",
          "name": "seller",
          "type": "address"
        }
      ],
      "name": "getSellerReviews",
      "outputs": [
        {
          "internalType": "string[]",
          "name": "",
          "type": "string[]"
        }
      ],
      "stateMutability": "view",
      "type": "function"
    },
    {
      "inputs": [
        {
          "internalType": "uint256",
          "name": "tokenId",
          "type": "uint256"
        }
      ],
      "name": "getTop7BidsForNFT",
      "outputs": [
        {
          "components": [
            {
              "internalType": "uint256",
              "name": "bidId",
              "type": "uint256"
            },
            {
              "internalType": "uint256",
              "name": "tokenId",
              "type": "uint256"
            },
            {
              "internalType": "address payable",
              "name": "bidder",
              "type": "address"
            },
            {
              "internalType": "uint256",
              "name": "amount",
              "type": "uint256"
            },
            {
              "internalType": "bool",
              "name": "active",
              "type": "bool"
            }
          ],
          "internalType": "struct NFTMarketplace.Bid[]",
          "name": "",
          "type": "tuple[]"
        }
      ],
      "stateMutability": "view",
      "type": "function"
    },
    {
      "inputs": [
        {
          "internalType": "address",
          "name": "owner",
          "type": "address"
        },
        {
          "internalType": "address",
          "name": "operator",
          "type": "address"
        }
      ],
      "name": "isApprovedForAll",
      "outputs": [
        {
          "internalType": "bool",
          "name": "",
          "type": "bool"
        }
      ],
      "stateMutability": "view",
      "type": "function"
    },
    {
      "inputs": [],
      "name": "listingPrice",
      "outputs": [
        {
          "internalType": "uint256",
          "name": "",
          "type": "uint256"
        }
      ],
      "stateMutability": "view",
      "type": "function"
    },
    {
      "inputs": [],
      "name": "name",
      "outputs": [
        {
          "internalType": "string",
          "name": "",
          "type": "string"
        }
      ],
      "stateMutability": "view",
      "type": "function"
    },
    {
      "inputs": [],
      "name": "owner",
      "outputs": [
        {
          "internalType": "address payable",
          "name": "",
          "type": "address"
        }
      ],
      "stateMutability": "view",
      "type": "function"
    },
    {
      "inputs": [
        {
          "internalType": "uint256",
          "name": "tokenId",
          "type": "uint256"
        }
      ],
      "name": "ownerOf",
      "outputs": [
        {
          "internalType": "address",
          "name": "",
          "type": "address"
        }
      ],
      "stateMutability": "view",
      "type": "function"
    },
    {
      "inputs": [
        {
          "internalType": "uint256",
          "name": "tokenId",
          "type": "uint256"
        }
      ],
      "name": "placeBid",
      "outputs": [],
      "stateMutability": "payable",
      "type": "function"
    },
    {
      "inputs": [
        {
          "internalType": "uint256",
          "name": "tokenId",
          "type": "uint256"
        },
        {
          "internalType": "uint256",
          "name": "price",
          "type": "uint256"
        }
      ],
      "name": "resellToken",
      "outputs": [],
      "stateMutability": "payable",
      "type": "function"
    },
    {
      "inputs": [
        {
          "internalType": "address",
          "name": "from",
          "type": "address"
        },
        {
          "internalType": "address",
          "name": "to",
          "type": "address"
        },
        {
          "internalType": "uint256",
          "name": "tokenId",
          "type": "uint256"
        }
      ],
      "name": "safeTransferFrom",
      "outputs": [],
      "stateMutability": "nonpayable",
      "type": "function"
    },
    {
      "inputs": [
        {
          "internalType": "address",
          "name": "from",
          "type": "address"
        },
        {
          "internalType": "address",
          "name": "to",
          "type": "address"
        },
        {
          "internalType": "uint256",
          "name": "tokenId",
          "type": "uint256"
        },
        {
          "internalType": "bytes",
          "name": "data",
          "type": "bytes"
        }
      ],
      "name": "safeTransferFrom",
      "outputs": [],
      "stateMutability": "nonpayable",
      "type": "function"
    },
    {
      "inputs": [
        {
          "internalType": "address",
          "name": "operator",
          "type": "address"
        },
        {
          "internalType": "bool",
          "name": "approved",
          "type": "bool"
        }
      ],
      "name": "setApprovalForAll",
      "outputs": [],
      "stateMutability": "nonpayable",
      "type": "function"
    },
    {
      "inputs": [
        {
          "internalType": "bytes4",
          "name": "interfaceId",
          "type": "bytes4"
        }
      ],
      "name": "supportsInterface",
      "outputs": [
        {
          "internalType": "bool",
          "name": "",
          "type": "bool"
        }
      ],
      "stateMutability": "view",
      "type": "function"
    },
    {
      "inputs": [],
      "name": "symbol",
      "outputs": [
        {
          "internalType": "string",
          "name": "",
          "type": "string"
        }
      ],
      "stateMutability": "view",
      "type": "function"
    },
    {
      "inputs": [
        {
          "internalType": "uint256",
          "name": "tokenId",
          "type": "uint256"
        }
      ],
      "name": "tokenURI",
      "outputs": [
        {
          "internalType": "string",
          "name": "",
          "type": "string"
        }
      ],
      "stateMutability": "view",
      "type": "function"
    },
    {
      "inputs": [
        {
          "internalType": "address",
          "name": "from",
          "type": "address"
        },
        {
          "internalType": "address",
          "name": "to",
          "type": "address"
        },
        {
          "internalType": "uint256",
          "name": "tokenId",
          "type": "uint256"
        }
      ],
      "name": "transferFrom",
      "outputs": [],
      "stateMutability": "nonpayable",
      "type": "function"
    },
    {
      "inputs": [
        {
          "internalType": "uint256",
          "name": "_listingPrice",
          "type": "uint256"
        }
      ],
      "name": "updateListingPrice",
      "outputs": [],
      "stateMutability": "payable",
      "type": "function"
    }
  ],
  "bytecode": "0x60806040526658d15e17628000600a553480156200001c57600080fd5b506040518060400160405280601081526020016f4d657461766572736520546f6b656e7360801b815250604051806040016040528060048152602001631351551560e21b815250816000908162000074919062000143565b50600162000083828262000143565b5050600b80546001600160a01b03191633179055506200020f565b634e487b7160e01b600052604160045260246000fd5b600181811c90821680620000c957607f821691505b602082108103620000ea57634e487b7160e01b600052602260045260246000fd5b50919050565b601f8211156200013e57600081815260208120601f850160051c81016020861015620001195750805b601f850160051c820191505b818110156200013a5782815560010162000125565b5050505b505050565b81516001600160401b038111156200015f576200015f6200009e565b6200017781620001708454620000b4565b84620000f0565b602080601f831160018114620001af5760008415620001965750858301515b600019600386901b1c1916600185901b1785556200013a565b600085815260208120601f198616915b82811015620001e057888601518255948401946001909101908401620001bf565b5085821015620001ff5787850151600019600388901b60f8161c191681555b5050505050600190811b01905550565b6132d3806200021f6000396000f3fe6080604052600436106101c25760003560e01c806370a08231116100f7578063a22cb46511610095578063c78f19f911610064578063c78f19f9146104de578063c87b56dd146104f4578063e219fc7514610514578063e985e9c51461052757600080fd5b8063a22cb46514610478578063ae677aa314610498578063b88d4fde146104ab578063be9af536146104cb57600080fd5b80638c518b15116100d15780638c518b15146104105780638da5cb5b1461043057806395d89b41146104505780639979ef451461046557600080fd5b806370a08231146103bd57806372b3b620146103dd57806378ed419c146103f057600080fd5b8063202e3740116101645780632f2131d11161013e5780632f2131d11461033b57806342842e0e1461036857806345f8fa80146103885780636352211e1461039d57600080fd5b8063202e3740146102e657806323b872dd146102fb5780632b1fd58a1461031b57600080fd5b8063081812fc116101a0578063081812fc1461024b578063095ea7b3146102835780630f08efe0146102a557806312e85585146102c757600080fd5b806301ffc9a7146101c757806302e86426146101fc57806306fdde0314610229575b600080fd5b3480156101d357600080fd5b506101e76101e236600461299d565b610570565b60405190151581526020015b60405180910390f35b34801561020857600080fd5b5061021c6102173660046129ba565b61059b565b6040516101f391906129d3565b34801561023557600080fd5b5061023e610837565b6040516101f39190612a9c565b34801561025757600080fd5b5061026b6102663660046129ba565b6108c9565b6040516001600160a01b0390911681526020016101f3565b34801561028f57600080fd5b506102a361029e366004612acb565b6108f0565b005b3480156102b157600080fd5b506102ba610a0a565b6040516101f39190612af5565b3480156102d357600080fd5b50600a545b6040519081526020016101f3565b3480156102f257600080fd5b506102ba610b8b565b34801561030757600080fd5b506102a3610316366004612b7c565b610d52565b34801561032757600080fd5b506102a36103363660046129ba565b610d83565b34801561034757600080fd5b5061035b610356366004612bb8565b610fd6565b6040516101f39190612bd3565b34801561037457600080fd5b506102a3610383366004612b7c565b6110c5565b34801561039457600080fd5b506102ba6110e0565b3480156103a957600080fd5b5061026b6103b83660046129ba565b6112a7565b3480156103c957600080fd5b506102d86103d8366004612bb8565b611307565b6102d86103eb366004612ce1565b61138d565b3480156103fc57600080fd5b506102a361040b366004612d26565b6113cf565b34801561041c57600080fd5b5061035b61042b366004612bb8565b611491565b34801561043c57600080fd5b50600b5461026b906001600160a01b031681565b34801561045c57600080fd5b5061023e611575565b6102a36104733660046129ba565b611584565b34801561048457600080fd5b506102a3610493366004612d74565b6116c2565b6102a36104a63660046129ba565b6116cd565b3480156104b757600080fd5b506102a36104c6366004612db0565b611745565b6102a36104d93660046129ba565b61177d565b3480156104ea57600080fd5b506102d8600a5481565b34801561050057600080fd5b5061023e61050f3660046129ba565b6118e5565b6102a3610522366004612e2c565b6119f5565b34801561053357600080fd5b506101e7610542366004612e4e565b6001600160a01b03918216600090815260056020908152604080832093909416825291909152205460ff1690565b60006001600160e01b03198216632483248360e11b1480610595575061059582611aed565b92915050565b606060006105a860095490565b9050600060015b8281116105ef576000818152600d60205260409020600101548590036105dd576105da600183612e97565b91505b806105e781612eaa565b9150506105af565b5080600003610632576040805160008082526020820190925290610629565b610616612911565b81526020019060019003908161060e5790505b50949350505050565b60008167ffffffffffffffff81111561064d5761064d612c35565b60405190808252806020026020018201604052801561068657816020015b610673612911565b81526020019060019003908161066b5790505b509050600060015b848111610746576000818152600d6020526040902060010154879003610734576000818152600d6020908152604091829020825160a0810184528154815260018201549281019290925260028101546001600160a01b0316928201929092526003820154606082015260049091015460ff1615156080820152835184908490811061071b5761071b612ec3565b6020908102919091010152610731600183612e97565b91505b8061073e81612eaa565b91505061068e565b5060018251111561076a5761076a826000600185516107659190612ed9565b611b3d565b60006007841061077b57600761077d565b835b905060008167ffffffffffffffff81111561079a5761079a612c35565b6040519080825280602002602001820160405280156107d357816020015b6107c0612911565b8152602001906001900390816107b85790505b50905060005b8281101561082b578481815181106107f3576107f3612ec3565b602002602001015182828151811061080d5761080d612ec3565b6020026020010181905250808061082390612eaa565b9150506107d9565b50979650505050505050565b60606000805461084690612eec565b80601f016020809104026020016040519081016040528092919081815260200182805461087290612eec565b80156108bf5780601f10610894576101008083540402835291602001916108bf565b820191906000526020600020905b8154815290600101906020018083116108a257829003601f168201915b5050505050905090565b60006108d482611cca565b506000908152600460205260409020546001600160a01b031690565b60006108fb826112a7565b9050806001600160a01b0316836001600160a01b03160361096d5760405162461bcd60e51b815260206004820152602160248201527f4552433732313a20617070726f76616c20746f2063757272656e74206f776e656044820152603960f91b60648201526084015b60405180910390fd5b336001600160a01b038216148061098957506109898133610542565b6109fb5760405162461bcd60e51b815260206004820152603d60248201527f4552433732313a20617070726f76652063616c6c6572206973206e6f7420746f60448201527f6b656e206f776e6572206f7220617070726f76656420666f7220616c6c0000006064820152608401610964565b610a058383611d2c565b505050565b60606000610a1760075490565b90506000610a2460085490565b600754610a319190612ed9565b90506000808267ffffffffffffffff811115610a4f57610a4f612c35565b604051908082528060200260200182016040528015610a8857816020015b610a7561294b565b815260200190600190039081610a6d5790505b50905060005b848110156106295730600c6000610aa6846001612e97565b81526020810191909152604001600020600201546001600160a01b031603610b79576000610ad5826001612e97565b6000818152600c6020908152604091829020825160e0810184528154815260018201546001600160a01b039081169382019390935260028201548316938101939093526003810154909116606083015260048101546080830152600581015460ff16151560a08301526006015460c0820152845191925090849086908110610b5f57610b5f612ec3565b6020908102919091010152610b75600185612e97565b9350505b80610b8381612eaa565b915050610a8e565b60606000610b9860075490565b905060008060005b83811015610bfa5733600c6000610bb8846001612e97565b81526020810191909152604001600020600201546001600160a01b031603610be857610be5600184612e97565b92505b80610bf281612eaa565b915050610ba0565b5060008267ffffffffffffffff811115610c1657610c16612c35565b604051908082528060200260200182016040528015610c4f57816020015b610c3c61294b565b815260200190600190039081610c345790505b50905060005b848110156106295733600c6000610c6d846001612e97565b81526020810191909152604001600020600201546001600160a01b031603610d40576000610c9c826001612e97565b6000818152600c6020908152604091829020825160e0810184528154815260018201546001600160a01b039081169382019390935260028201548316938101939093526003810154909116606083015260048101546080830152600581015460ff16151560a08301526006015460c0820152845191925090849086908110610d2657610d26612ec3565b6020908102919091010152610d3c600185612e97565b9350505b80610d4a81612eaa565b915050610c55565b610d5c3382611d9a565b610d785760405162461bcd60e51b815260040161096490612f26565b610a05838383611e18565b6000818152600d60205260409020600481015460ff16610dd95760405162461bcd60e51b8152602060048201526011602482015270426964206973206e6f742061637469766560781b6044820152606401610964565b6001818101546000908152600c6020526040902001546001600160a01b03163314610e465760405162461bcd60e51b815260206004820152601f60248201527f4f6e6c79206974656d206f776e65722063616e206163636570742062696473006044820152606401610964565b60018101546000818152600c6020526040902060029081015490830154610e7c926001600160a01b039283169290911690611e18565b600281810154600180840180546000908152600c602052604080822090950180546001600160a01b039095166001600160a01b03199586161790558154815284812083018054909416909355548252919020600501805460ff191682179055600880549091019055600181015460028201546003830154604080516001600160a01b039093168352602083019190915233929185917f3d9a4cbd544b7295d44b4c9c4b8eed6e167b04a0483a126a44f8833078eac041910160405180910390a4600b54600a546040516001600160a01b039092169181156108fc0291906000818181858888f19350505050158015610f78573d6000803e3d6000fd5b506003810154604051339180156108fc02916000818181858888f19350505050158015610fa9573d6000803e3d6000fd5b5060048101805460ff191690556001810154610fc59083611f7c565b610fd28160010154612082565b5050565b6001600160a01b0381166000908152600e60209081526040808320805482518185028101850190935280835260609492939192909184015b828210156110ba57838290600052602060002001805461102d90612eec565b80601f016020809104026020016040519081016040528092919081815260200182805461105990612eec565b80156110a65780601f1061107b576101008083540402835291602001916110a6565b820191906000526020600020905b81548152906001019060200180831161108957829003601f168201915b50505050508152602001906001019061100e565b505050509050919050565b610a0583838360405180602001604052806000815250611745565b606060006110ed60075490565b905060008060005b8381101561114f5733600c600061110d846001612e97565b81526020810191909152604001600020600101546001600160a01b03160361113d5761113a600184612e97565b92505b8061114781612eaa565b9150506110f5565b5060008267ffffffffffffffff81111561116b5761116b612c35565b6040519080825280602002602001820160405280156111a457816020015b61119161294b565b8152602001906001900390816111895790505b50905060005b848110156106295733600c60006111c2846001612e97565b81526020810191909152604001600020600101546001600160a01b0316036112955760006111f1826001612e97565b6000818152600c6020908152604091829020825160e0810184528154815260018201546001600160a01b039081169382019390935260028201548316938101939093526003810154909116606083015260048101546080830152600581015460ff16151560a08301526006015460c082015284519192509084908690811061127b5761127b612ec3565b6020908102919091010152611291600185612e97565b9350505b8061129f81612eaa565b9150506111aa565b6000818152600260205260408120546001600160a01b0316806105955760405162461bcd60e51b8152602060048201526018602482015277115490cdcc8c4e881a5b9d985b1a59081d1bdad95b88125160421b6044820152606401610964565b60006001600160a01b0382166113715760405162461bcd60e51b815260206004820152602960248201527f4552433732313a2061646472657373207a65726f206973206e6f7420612076616044820152683634b21037bbb732b960b91b6064820152608401610964565b506001600160a01b031660009081526003602052604090205490565b600061139d600780546001019055565b60006113a860075490565b90506113b43382612102565b6113be818561228d565b6113c88184612358565b9392505050565b60008151116114195760405162461bcd60e51b81526020600482015260166024820152755265766965772063616e6e6f7420626520656d70747960501b6044820152606401610964565b6001600160a01b0382166000908152600e602090815260408220805460018101825590835291200161144b8282612fb9565b50816001600160a01b03167f735a8465cb95c1119a0a9c5bfe794f848896e77bf9ba97f9115c49a08e5b54eb826040516114859190612a9c565b60405180910390a25050565b6001600160a01b0381166000908152600e60209081526040808320805482518185028101850190935280835260609492939192909184015b828210156110ba5783829060005260206000200180546114e890612eec565b80601f016020809104026020016040519081016040528092919081815260200182805461151490612eec565b80156115615780601f1061153657610100808354040283529160200191611561565b820191906000526020600020905b81548152906001019060200180831161154457829003601f168201915b5050505050815260200190600101906114c9565b60606001805461084690612eec565b600034116115de5760405162461bcd60e51b815260206004820152602160248201527f42696420616d6f756e74206d7573742062652067726561746572207468616e206044820152600360fc1b6064820152608401610964565b60006115e960095490565b6115f4906001612e97565b6040805160a08101825282815260208082018681523383850190815234606085019081526001608086018181526000898152600d9096529690942094518555915184840155516002840180546001600160a01b0319166001600160a01b0390921691909117905551600383015591516004909101805460ff1916911515919091179055600980549091019055905060408051338152346020820152839183917f6f7e354ea3ab5c288aea37fce29c603f9a98a3b040f6d8f32f10e192ec47ff6a910160405180910390a35050565b610fd23383836124da565b600b546001600160a01b031633146117405760405162461bcd60e51b815260206004820152603060248201527f4f6e6c79206d61726b6574706c616365206f776e65722063616e20757064617460448201526f32903634b9ba34b73390383934b1b29760811b6064820152608401610964565b600a55565b61174f3383611d9a565b61176b5760405162461bcd60e51b815260040161096490612f26565b611777848484846125a8565b50505050565b6000818152600c6020526040902060040154348114611806576040805162461bcd60e51b81526020600482015260248101919091527f506c65617365207375626d6974207468652061736b696e67207072696365206960448201527f6e206f7264657220746f20636f6d706c657465207468652070757263686173656064820152608401610964565b61180f82612082565b6000828152600c602052604090206002810180546001600160a01b0319908116331790915560058201805460ff19166001908117909155909101805491821690556001600160a01b0316611867600880546001019055565b611872303385611e18565b6040516001600160a01b0382169083156108fc029084906000818181858888f193505050501580156118a8573d6000803e3d6000fd5b50600b54600a546040516001600160a01b039092169181156108fc0291906000818181858888f19350505050158015611777573d6000803e3d6000fd5b60606118f082611cca565b6000828152600660205260408120805461190990612eec565b80601f016020809104026020016040519081016040528092919081815260200182805461193590612eec565b80156119825780601f1061195757610100808354040283529160200191611982565b820191906000526020600020905b81548152906001019060200180831161196557829003601f168201915b5050505050905060006119a060408051602081019091526000815290565b905080516000036119b2575092915050565b8151156119e45780826040516020016119cc929190613079565b60405160208183030381529060405292505050919050565b6119ed846125db565b949350505050565b6000828152600c60205260409020600201546001600160a01b03163314611a715760405162461bcd60e51b815260206004820152602a60248201527f4f6e6c79206974656d206f776e65722063616e20706572666f726d20746869736044820152691037b832b930ba34b7b760b11b6064820152608401610964565b600a543414611a925760405162461bcd60e51b8152600401610964906130a8565b6000828152600c6020526040902060058101805460ff19169055600481018290556001810180546001600160a01b031990811633179091556002909101805490911630179055611ae2600861264e565b610fd2333084611e18565b60006001600160e01b031982166380ac58cd60e01b1480611b1e57506001600160e01b03198216635b5e139f60e01b145b8061059557506301ffc9a760e01b6001600160e01b0319831614610595565b8181808203611b4d575050505050565b6000856002611b5c87876130ec565b611b669190613113565b611b70908761314f565b81518110611b8057611b80612ec3565b60200260200101516060015190505b818313611c9c575b80868481518110611baa57611baa612ec3565b6020026020010151606001511115611bce5782611bc681613177565b935050611b97565b858281518110611be057611be0612ec3565b602002602001015160600151811115611c055781611bfd8161318f565b925050611bce565b818313611c9757858281518110611c1e57611c1e612ec3565b6020026020010151868481518110611c3857611c38612ec3565b6020026020010151878581518110611c5257611c52612ec3565b60200260200101888581518110611c6b57611c6b612ec3565b6020026020010182905282905250508280611c8590613177565b9350508180611c939061318f565b9250505b611b8f565b81851215611caf57611caf868684611b3d565b83831215611cc257611cc2868486611b3d565b505050505050565b6000818152600260205260409020546001600160a01b0316611d295760405162461bcd60e51b8152602060048201526018602482015277115490cdcc8c4e881a5b9d985b1a59081d1bdad95b88125160421b6044820152606401610964565b50565b600081815260046020526040902080546001600160a01b0319166001600160a01b0384169081179091558190611d61826112a7565b6001600160a01b03167f8c5be1e5ebec7d5bd14f71427d1e84f3dd0314c0f7b2291e5b200ac8c7c3b92560405160405180910390a45050565b600080611da6836112a7565b9050806001600160a01b0316846001600160a01b03161480611ded57506001600160a01b0380821660009081526005602090815260408083209388168352929052205460ff165b806119ed5750836001600160a01b0316611e06846108c9565b6001600160a01b031614949350505050565b826001600160a01b0316611e2b826112a7565b6001600160a01b031614611e515760405162461bcd60e51b8152600401610964906131ac565b6001600160a01b038216611eb35760405162461bcd60e51b8152602060048201526024808201527f4552433732313a207472616e7366657220746f20746865207a65726f206164646044820152637265737360e01b6064820152608401610964565b826001600160a01b0316611ec6826112a7565b6001600160a01b031614611eec5760405162461bcd60e51b8152600401610964906131ac565b600081815260046020908152604080832080546001600160a01b03199081169091556001600160a01b0387811680865260038552838620805460001901905590871680865283862080546001019055868652600290945282852080549092168417909155905184937fddf252ad1be2c89b69c2b068fc378daa952ba7f163c4a11628f55a4df523b3ef91a4505050565b6000611f8760095490565b905060015b818111611777576000818152600d602052604090206004015460ff168015611fb45750828114155b8015611fd057506000818152600d602052604090206001015484145b15612070576000818152600d602052604080822060048101805460ff1916905560028101546003820154925191936001600160a01b039091169280156108fc02929091818181858888f19350505050158015612030573d6000803e3d6000fd5b50506000818152600d60205260408120818155600181018290556002810180546001600160a01b03191690556003810191909155600401805460ff191690555b8061207a81612eaa565b915050611f8c565b600061208d60095490565b905060015b818111610a05576000818152600d60205260409020600101548390036120f0576000818152600d60205260408120818155600181018290556002810180546001600160a01b03191690556003810191909155600401805460ff191690555b806120fa81612eaa565b915050612092565b6001600160a01b0382166121585760405162461bcd60e51b815260206004820181905260248201527f4552433732313a206d696e7420746f20746865207a65726f20616464726573736044820152606401610964565b6000818152600260205260409020546001600160a01b0316156121bd5760405162461bcd60e51b815260206004820152601c60248201527f4552433732313a20746f6b656e20616c7265616479206d696e746564000000006044820152606401610964565b6000818152600260205260409020546001600160a01b0316156122225760405162461bcd60e51b815260206004820152601c60248201527f4552433732313a20746f6b656e20616c7265616479206d696e746564000000006044820152606401610964565b6001600160a01b038216600081815260036020908152604080832080546001019055848352600290915280822080546001600160a01b0319168417905551839291907fddf252ad1be2c89b69c2b068fc378daa952ba7f163c4a11628f55a4df523b3ef908290a45050565b6000828152600260205260409020546001600160a01b03166123085760405162461bcd60e51b815260206004820152602e60248201527f45524337323155524953746f726167653a2055524920736574206f66206e6f6e60448201526d32bc34b9ba32b73a103a37b5b2b760911b6064820152608401610964565b60008281526006602052604090206123208282612fb9565b506040518281527ff8e1a15aba9398e019f0b49df1a4fde98ee17ae345cb5f6b5e2c27f5033e8ce79060200160405180910390a15050565b600081116123a85760405162461bcd60e51b815260206004820152601c60248201527f5072696365206d757374206265206174206c65617374203120776569000000006044820152606401610964565b600a5434146123c95760405162461bcd60e51b8152600401610964906130a8565b6040805160e08101825283815233602080830182815230848601818152600060608701818152608088018a815260a089018381524260c08b019081528d8552600c909852999092209751885593516001880180546001600160a01b03199081166001600160a01b0393841617909155925160028901805485169183169190911790559351600388018054909316941693909317905590516004850155935160058401805460ff19169115159190911790555160069092019190915561248e9184611e18565b604080513381523060208201529081018290526000606082015242608082015282907f2d68735082042d66c5027bd8c6f7e29d9eaa7ce21cd00f9671f170b22a091d289060a001611485565b816001600160a01b0316836001600160a01b03160361253b5760405162461bcd60e51b815260206004820152601960248201527f4552433732313a20617070726f766520746f2063616c6c6572000000000000006044820152606401610964565b6001600160a01b03838116600081815260056020908152604080832094871680845294825291829020805460ff191686151590811790915591519182527f17307eab39ab6107e8899845ad3d59bd9653f200f220920489ca2b5937696c31910160405180910390a3505050565b6125b3848484611e18565b6125bf848484846126a5565b6117775760405162461bcd60e51b8152600401610964906131f1565b60606125e682611cca565b60006125fd60408051602081019091526000815290565b9050600081511161261d57604051806020016040528060008152506113c8565b80612627846127a6565b604051602001612638929190613079565b6040516020818303038152906040529392505050565b80548061269d5760405162461bcd60e51b815260206004820152601b60248201527f436f756e7465723a2064656372656d656e74206f766572666c6f7700000000006044820152606401610964565b600019019055565b60006001600160a01b0384163b1561279b57604051630a85bd0160e11b81526001600160a01b0385169063150b7a02906126e9903390899088908890600401613243565b6020604051808303816000875af1925050508015612724575060408051601f3d908101601f1916820190925261272191810190613280565b60015b612781573d808015612752576040519150601f19603f3d011682016040523d82523d6000602084013e612757565b606091505b5080516000036127795760405162461bcd60e51b8152600401610964906131f1565b805181602001fd5b6001600160e01b031916630a85bd0160e11b1490506119ed565b506001949350505050565b606060006127b383612839565b600101905060008167ffffffffffffffff8111156127d3576127d3612c35565b6040519080825280601f01601f1916602001820160405280156127fd576020820181803683370190505b5090508181016020015b600019016f181899199a1a9b1b9c1cb0b131b232b360811b600a86061a8153600a850494508461280757509392505050565b60008072184f03e93ff9f4daa797ed6e38ed64bf6a1f0160401b83106128785772184f03e93ff9f4daa797ed6e38ed64bf6a1f0160401b830492506040015b6d04ee2d6d415b85acef810000000083106128a4576d04ee2d6d415b85acef8100000000830492506020015b662386f26fc1000083106128c257662386f26fc10000830492506010015b6305f5e10083106128da576305f5e100830492506008015b61271083106128ee57612710830492506004015b60648310612900576064830492506002015b600a83106105955760010192915050565b6040518060a00160405280600081526020016000815260200160006001600160a01b03168152602001600081526020016000151581525090565b6040805160e081018252600080825260208201819052918101829052606081018290526080810182905260a0810182905260c081019190915290565b6001600160e01b031981168114611d2957600080fd5b6000602082840312156129af57600080fd5b81356113c881612987565b6000602082840312156129cc57600080fd5b5035919050565b602080825282518282018190526000919060409081850190868401855b82811015612a3f578151805185528681015187860152858101516001600160a01b0316868601526060808201519086015260809081015115159085015260a090930192908501906001016129f0565b5091979650505050505050565b60005b83811015612a67578181015183820152602001612a4f565b50506000910152565b60008151808452612a88816020860160208601612a4c565b601f01601f19169290920160200192915050565b6020815260006113c86020830184612a70565b80356001600160a01b0381168114612ac657600080fd5b919050565b60008060408385031215612ade57600080fd5b612ae783612aaf565b946020939093013593505050565b602080825282518282018190526000919060409081850190868401855b82811015612a3f57815180518552868101516001600160a01b039081168887015286820151811687870152606080830151909116908601526080808201519086015260a08082015115159086015260c0908101519085015260e09093019290850190600101612b12565b600080600060608486031215612b9157600080fd5b612b9a84612aaf565b9250612ba860208501612aaf565b9150604084013590509250925092565b600060208284031215612bca57600080fd5b6113c882612aaf565b6000602080830181845280855180835260408601915060408160051b870101925083870160005b82811015612c2857603f19888603018452612c16858351612a70565b94509285019290850190600101612bfa565b5092979650505050505050565b634e487b7160e01b600052604160045260246000fd5b600067ffffffffffffffff80841115612c6657612c66612c35565b604051601f8501601f19908116603f01168101908282118183101715612c8e57612c8e612c35565b81604052809350858152868686011115612ca757600080fd5b858560208301376000602087830101525050509392505050565b600082601f830112612cd257600080fd5b6113c883833560208501612c4b565b60008060408385031215612cf457600080fd5b823567ffffffffffffffff811115612d0b57600080fd5b612d1785828601612cc1565b95602094909401359450505050565b60008060408385031215612d3957600080fd5b612d4283612aaf565b9150602083013567ffffffffffffffff811115612d5e57600080fd5b612d6a85828601612cc1565b9150509250929050565b60008060408385031215612d8757600080fd5b612d9083612aaf565b915060208301358015158114612da557600080fd5b809150509250929050565b60008060008060808587031215612dc657600080fd5b612dcf85612aaf565b9350612ddd60208601612aaf565b925060408501359150606085013567ffffffffffffffff811115612e0057600080fd5b8501601f81018713612e1157600080fd5b612e2087823560208401612c4b565b91505092959194509250565b60008060408385031215612e3f57600080fd5b50508035926020909101359150565b60008060408385031215612e6157600080fd5b612e6a83612aaf565b9150612e7860208401612aaf565b90509250929050565b634e487b7160e01b600052601160045260246000fd5b8082018082111561059557610595612e81565b600060018201612ebc57612ebc612e81565b5060010190565b634e487b7160e01b600052603260045260246000fd5b8181038181111561059557610595612e81565b600181811c90821680612f0057607f821691505b602082108103612f2057634e487b7160e01b600052602260045260246000fd5b50919050565b6020808252602d908201527f4552433732313a2063616c6c6572206973206e6f7420746f6b656e206f776e6560408201526c1c881bdc88185c1c1c9bdd9959609a1b606082015260800190565b601f821115610a0557600081815260208120601f850160051c81016020861015612f9a5750805b601f850160051c820191505b81811015611cc257828155600101612fa6565b815167ffffffffffffffff811115612fd357612fd3612c35565b612fe781612fe18454612eec565b84612f73565b602080601f83116001811461301c57600084156130045750858301515b600019600386901b1c1916600185901b178555611cc2565b600085815260208120601f198616915b8281101561304b5788860151825594840194600190910190840161302c565b50858210156130695787850151600019600388901b60f8161c191681555b5050505050600190811b01905550565b6000835161308b818460208801612a4c565b83519083019061309f818360208801612a4c565b01949350505050565b60208082526024908201527f5072696365206d75737420626520657175616c20746f206c697374696e6720706040820152637269636560e01b606082015260800190565b818103600083128015838313168383128216171561310c5761310c612e81565b5092915050565b60008261313057634e487b7160e01b600052601260045260246000fd5b600160ff1b82146000198414161561314a5761314a612e81565b500590565b808201828112600083128015821682158216171561316f5761316f612e81565b505092915050565b60006001600160ff1b018201612ebc57612ebc612e81565b6000600160ff1b82016131a4576131a4612e81565b506000190190565b60208082526025908201527f4552433732313a207472616e736665722066726f6d20696e636f72726563742060408201526437bbb732b960d91b606082015260800190565b60208082526032908201527f4552433732313a207472616e7366657220746f206e6f6e20455243373231526560408201527131b2b4bb32b91034b6b83632b6b2b73a32b960711b606082015260800190565b6001600160a01b038581168252841660208201526040810183905260806060820181905260009061327690830184612a70565b9695505050505050565b60006020828403121561329257600080fd5b81516113c88161298756fea26469706673582212204a12a86add3903541634b21365674a41e74fe7f525cd8e3fc48c85540633658664736f6c63430008110033",
  "linkReferences": {},
  "deployedLinkReferences": {}
}